{
  "contractName": "FCT",
  "address": "0x5c0C12203F6b77a04d2Ae3c83DEdC1bb7D4a6C6e",
  "abi": [
    {
      "constant": true,
      "inputs": [],
      "name": "TOTAL_CAP",
      "outputs": [
        {
          "name": "",
          "type": "uint256"
        }
      ],
      "payable": false,
      "stateMutability": "view",
      "type": "function"
    },
    {
      "constant": true,
      "inputs": [],
      "name": "name",
      "outputs": [
        {
          "name": "",
          "type": "string"
        }
      ],
      "payable": false,
      "stateMutability": "view",
      "type": "function"
    },
    {
      "constant": false,
      "inputs": [
        {
          "name": "_spender",
          "type": "address"
        },
        {
          "name": "_value",
          "type": "uint256"
        }
      ],
      "name": "approve",
      "outputs": [
        {
          "name": "",
          "type": "bool"
        }
      ],
      "payable": false,
      "stateMutability": "nonpayable",
      "type": "function"
    },
    {
      "constant": false,
      "inputs": [
        {
          "name": "removedOwner",
          "type": "address"
        }
      ],
      "name": "removeOwner",
      "outputs": [],
      "payable": false,
      "stateMutability": "nonpayable",
      "type": "function"
    },
    {
      "constant": true,
      "inputs": [],
      "name": "totalSupply",
      "outputs": [
        {
          "name": "",
          "type": "uint256"
        }
      ],
      "payable": false,
      "stateMutability": "view",
      "type": "function"
    },
    {
      "constant": true,
      "inputs": [
        {
          "name": "addr",
          "type": "address"
        }
      ],
      "name": "isOwner",
      "outputs": [
        {
          "name": "",
          "type": "bool"
        }
      ],
      "payable": false,
      "stateMutability": "view",
      "type": "function"
    },
    {
      "constant": true,
      "inputs": [],
      "name": "decimals",
      "outputs": [
        {
          "name": "",
          "type": "uint256"
        }
      ],
      "payable": false,
      "stateMutability": "view",
      "type": "function"
    },
    {
      "constant": false,
      "inputs": [
        {
          "name": "_spender",
          "type": "address"
        },
        {
          "name": "_subtractedValue",
          "type": "uint256"
        }
      ],
      "name": "decreaseApproval",
      "outputs": [
        {
          "name": "",
          "type": "bool"
        }
      ],
      "payable": false,
      "stateMutability": "nonpayable",
      "type": "function"
    },
    {
      "constant": false,
      "inputs": [
        {
          "name": "guest",
          "type": "address"
        }
      ],
      "name": "addOwner",
      "outputs": [],
      "payable": false,
      "stateMutability": "nonpayable",
      "type": "function"
    },
    {
      "constant": true,
      "inputs": [
        {
          "name": "_owner",
          "type": "address"
        }
      ],
      "name": "balanceOf",
      "outputs": [
        {
          "name": "",
          "type": "uint256"
        }
      ],
      "payable": false,
      "stateMutability": "view",
      "type": "function"
    },
    {
      "constant": true,
      "inputs": [],
      "name": "symbol",
      "outputs": [
        {
          "name": "",
          "type": "string"
        }
      ],
      "payable": false,
      "stateMutability": "view",
      "type": "function"
    },
    {
      "constant": false,
      "inputs": [
        {
          "name": "_spender",
          "type": "address"
        },
        {
          "name": "_addedValue",
          "type": "uint256"
        }
      ],
      "name": "increaseApproval",
      "outputs": [
        {
          "name": "",
          "type": "bool"
        }
      ],
      "payable": false,
      "stateMutability": "nonpayable",
      "type": "function"
    },
    {
      "constant": true,
      "inputs": [
        {
          "name": "_owner",
          "type": "address"
        },
        {
          "name": "_spender",
          "type": "address"
        }
      ],
      "name": "allowance",
      "outputs": [
        {
          "name": "",
          "type": "uint256"
        }
      ],
      "payable": false,
      "stateMutability": "view",
      "type": "function"
    },
    {
      "constant": false,
      "inputs": [
        {
          "name": "newOwner",
          "type": "address"
        }
      ],
      "name": "transferOwnership",
      "outputs": [],
      "payable": false,
      "stateMutability": "nonpayable",
      "type": "function"
    },
    {
      "inputs": [],
      "payable": false,
      "stateMutability": "nonpayable",
      "type": "constructor"
    },
    {
      "anonymous": false,
      "inputs": [
        {
          "indexed": true,
          "name": "_to",
          "type": "address"
        },
        {
          "indexed": false,
          "name": "_amount",
          "type": "uint256"
        }
      ],
      "name": "Mint",
      "type": "event"
    },
    {
      "anonymous": false,
      "inputs": [
        {
          "indexed": true,
          "name": "_from",
          "type": "address"
        },
        {
          "indexed": false,
          "name": "_amount",
          "type": "uint256"
        }
      ],
      "name": "Burn",
      "type": "event"
    },
    {
      "anonymous": false,
      "inputs": [
        {
          "indexed": true,
          "name": "previousOwner",
          "type": "address"
        },
        {
          "indexed": true,
          "name": "newOwner",
          "type": "address"
        }
      ],
      "name": "OwnershipTransferred",
      "type": "event"
    },
    {
      "anonymous": false,
      "inputs": [
        {
          "indexed": true,
          "name": "host",
          "type": "address"
        },
        {
          "indexed": true,
          "name": "guest",
          "type": "address"
        }
      ],
      "name": "OwnershipExtended",
      "type": "event"
    },
    {
      "anonymous": false,
      "inputs": [
        {
          "indexed": true,
          "name": "removedOwner",
          "type": "address"
        }
      ],
      "name": "OwnershipRemoved",
      "type": "event"
    },
    {
      "anonymous": false,
      "inputs": [
        {
          "indexed": true,
          "name": "owner",
          "type": "address"
        },
        {
          "indexed": true,
          "name": "spender",
          "type": "address"
        },
        {
          "indexed": false,
          "name": "value",
          "type": "uint256"
        }
      ],
      "name": "Approval",
      "type": "event"
    },
    {
      "anonymous": false,
      "inputs": [
        {
          "indexed": true,
          "name": "from",
          "type": "address"
        },
        {
          "indexed": true,
          "name": "to",
          "type": "address"
        },
        {
          "indexed": false,
          "name": "value",
          "type": "uint256"
        }
      ],
      "name": "Transfer",
      "type": "event"
    },
    {
      "constant": false,
      "inputs": [],
      "name": "unlock",
      "outputs": [],
      "payable": false,
      "stateMutability": "nonpayable",
      "type": "function"
    },
    {
      "constant": false,
      "inputs": [],
      "name": "lock",
      "outputs": [],
      "payable": false,
      "stateMutability": "nonpayable",
      "type": "function"
    },
    {
      "constant": false,
      "inputs": [
        {
          "name": "_from",
          "type": "address"
        },
        {
          "name": "_to",
          "type": "address"
        },
        {
          "name": "_value",
          "type": "uint256"
        }
      ],
      "name": "transferFrom",
      "outputs": [
        {
          "name": "",
          "type": "bool"
        }
      ],
      "payable": false,
      "stateMutability": "nonpayable",
      "type": "function"
    },
    {
      "constant": false,
      "inputs": [
        {
          "name": "_to",
          "type": "address"
        },
        {
          "name": "_value",
          "type": "uint256"
        }
      ],
      "name": "transfer",
      "outputs": [
        {
          "name": "",
          "type": "bool"
        }
      ],
      "payable": false,
      "stateMutability": "nonpayable",
      "type": "function"
    },
    {
      "constant": false,
      "inputs": [
        {
          "name": "_to",
          "type": "address"
        },
        {
          "name": "_amount",
          "type": "uint256"
        }
      ],
      "name": "mint",
      "outputs": [
        {
          "name": "",
          "type": "bool"
        }
      ],
      "payable": false,
      "stateMutability": "nonpayable",
      "type": "function"
    },
    {
      "constant": false,
      "inputs": [
        {
          "name": "_amount",
          "type": "uint256"
        }
      ],
      "name": "burn",
      "outputs": [],
      "payable": false,
      "stateMutability": "nonpayable",
      "type": "function"
    }
  ],
  "bytecode": "0x60806040526004805460a060020a60ff021916905534801561002057600080fd5b50336000818152600360205260409020805460ff1916600117905560048054600160a060020a03191690911790556100716383215600670de0b6b3a7640000640100000000610e0f6100c282021704565b600181905533600081815260208181526040808320859055805194855251929391927fddf252ad1be2c89b69c2b068fc378daa952ba7f163c4a11628f55a4df523b3ef9281900390910190a36100f1565b60008215156100d3575060006100eb565b508181028183828115156100e357fe5b04146100eb57fe5b92915050565b610e84806101006000396000f3006080604052600436106101115763ffffffff7c010000000000000000000000000000000000000000000000000000000060003504166302548866811461011657806306fdde031461013d578063095ea7b3146101c7578063173825d9146101ff57806318160ddd1461022257806323b872dd146102375780632f54bf6e14610261578063313ce5671461028257806340c10f191461029757806342966c68146102bb57806366188463146102d35780637065cb48146102f757806370a082311461031857806395d89b4114610339578063a69df4b51461034e578063a9059cbb14610363578063d73dd62314610387578063dd62ed3e146103ab578063f2fde38b146103d2578063f83d08ba146103f3575b600080fd5b34801561012257600080fd5b5061012b610408565b60408051918252519081900360200190f35b34801561014957600080fd5b50610152610410565b6040805160208082528351818301528351919283929083019185019080838360005b8381101561018c578181015183820152602001610174565b50505050905090810190601f1680156101b95780820380516001836020036101000a031916815260200191505b509250505060405180910390f35b3480156101d357600080fd5b506101eb600160a060020a0360043516602435610447565b604080519115158252519081900360200190f35b34801561020b57600080fd5b50610220600160a060020a03600435166104ae565b005b34801561022e57600080fd5b5061012b610545565b34801561024357600080fd5b506101eb600160a060020a036004358116906024351660443561054b565b34801561026d57600080fd5b506101eb600160a060020a03600435166105a4565b34801561028e57600080fd5b5061012b6105c2565b3480156102a357600080fd5b506101eb600160a060020a03600435166024356105c7565b3480156102c757600080fd5b506102206004356106c1565b3480156102df57600080fd5b506101eb600160a060020a03600435166024356107a1565b34801561030357600080fd5b50610220600160a060020a0360043516610891565b34801561032457600080fd5b5061012b600160a060020a0360043516610911565b34801561034557600080fd5b5061015261092c565b34801561035a57600080fd5b50610220610963565b34801561036f57600080fd5b506101eb600160a060020a03600435166024356109b8565b34801561039357600080fd5b506101eb600160a060020a0360043516602435610a0f565b3480156103b757600080fd5b5061012b600160a060020a0360043581169060243516610aa8565b3480156103de57600080fd5b50610220600160a060020a0360043516610ad3565b3480156103ff57600080fd5b50610220610b7e565b638321560081565b60408051808201909152601081527f4669726d61436861696e20546f6b656e00000000000000000000000000000000602082015281565b336000818152600260209081526040808320600160a060020a038716808552908352818420869055815186815291519394909390927f8c5be1e5ebec7d5bd14f71427d1e84f3dd0314c0f7b2291e5b200ac8c7c3b925928290030190a35060015b92915050565b3360009081526003602052604090205460ff1615156104cc57600080fd5b600160a060020a03811615156104e157600080fd5b600454600160a060020a03828116911614156104fc57600080fd5b600160a060020a038116600081815260036020526040808220805460ff19169055517f86d076ecf250a6d90a67a7c75317f44709d5001395ecf1df6d9dad5278f1e6819190a250565b60015490565b60045460009074010000000000000000000000000000000000000000900460ff168061058657503360009081526003602052604090205460ff165b151561059157600080fd5b61059c848484610bbc565b949350505050565b600160a060020a031660009081526003602052604090205460ff1690565b601281565b3360009081526003602052604081205460ff1615156105e557600080fd5b600160a060020a03831615156105fa57600080fd5b60015461060d908363ffffffff610d2116565b600155600160a060020a038316600090815260208190526040902054610639908363ffffffff610d2116565b600160a060020a03841660008181526020818152604091829020939093558051858152905191927f0f6798a560793a54c3bcfe86a93cde1e73087d944c0ea20544137d412139688592918290030190a2604080518381529051600160a060020a03851691600091600080516020610e398339815191529181900360200190a350600192915050565b3360009081526003602052604090205460ff1615156106df57600080fd5b336000908152602081905260409020548111156106fb57600080fd5b60015461070e908263ffffffff610d2e16565b60015533600090815260208190526040902054610731908263ffffffff610d2e16565b3360008181526020818152604091829020939093558051848152905191927fcc16f5dbb4873280815c1ee09dbd06736cffcc184412cf7a71a0fdb75d397ca592918290030190a26040805182815290516000913391600080516020610e398339815191529181900360200190a350565b336000908152600260209081526040808320600160a060020a0386168452909152812054808311156107f657336000908152600260209081526040808320600160a060020a038816845290915281205561082b565b610806818463ffffffff610d2e16565b336000908152600260209081526040808320600160a060020a03891684529091529020555b336000818152600260209081526040808320600160a060020a0389168085529083529281902054815190815290519293927f8c5be1e5ebec7d5bd14f71427d1e84f3dd0314c0f7b2291e5b200ac8c7c3b925929181900390910190a35060019392505050565b3360009081526003602052604090205460ff1615156108af57600080fd5b600160a060020a03811615156108c457600080fd5b600160a060020a038116600081815260036020526040808220805460ff191660011790555133917f1d95aed2b82ae4cbdcccc214bb64bc277a20e8490d69a59d7f426c67fe46c61d91a350565b600160a060020a031660009081526020819052604090205490565b60408051808201909152600381527f4643540000000000000000000000000000000000000000000000000000000000602082015281565b3360009081526003602052604090205460ff16151561098157600080fd5b6004805474ff0000000000000000000000000000000000000000191674010000000000000000000000000000000000000000179055565b60045460009074010000000000000000000000000000000000000000900460ff16806109f357503360009081526003602052604090205460ff165b15156109fe57600080fd5b610a088383610d40565b9392505050565b336000908152600260209081526040808320600160a060020a0386168452909152812054610a43908363ffffffff610d2116565b336000818152600260209081526040808320600160a060020a0389168085529083529281902085905580519485525191937f8c5be1e5ebec7d5bd14f71427d1e84f3dd0314c0f7b2291e5b200ac8c7c3b925929081900390910190a350600192915050565b600160a060020a03918216600090815260026020908152604080832093909416825291909152205490565b3360009081526003602052604090205460ff161515610af157600080fd5b600160a060020a0381161515610b0657600080fd5b600454600160a060020a0316331415610b1e57600080fd5b600160a060020a038116600081815260036020526040808220805460ff19908116600117909155338084528284208054909216909155905190917f8be0079c531659141344cd1fd0a4f28419497f9722a3daafe3b4186f6b6457e091a350565b3360009081526003602052604090205460ff161515610b9c57600080fd5b6004805474ff000000000000000000000000000000000000000019169055565b6000600160a060020a0383161515610bd357600080fd5b600160a060020a038416600090815260208190526040902054821115610bf857600080fd5b600160a060020a0384166000908152600260209081526040808320338452909152902054821115610c2857600080fd5b600160a060020a038416600090815260208190526040902054610c51908363ffffffff610d2e16565b600160a060020a038086166000908152602081905260408082209390935590851681522054610c86908363ffffffff610d2116565b600160a060020a03808516600090815260208181526040808320949094559187168152600282528281203382529091522054610cc8908363ffffffff610d2e16565b600160a060020a0380861660008181526002602090815260408083203384528252918290209490945580518681529051928716939192600080516020610e39833981519152929181900390910190a35060019392505050565b818101828110156104a857fe5b600082821115610d3a57fe5b50900390565b6000600160a060020a0383161515610d5757600080fd5b33600090815260208190526040902054821115610d7357600080fd5b33600090815260208190526040902054610d93908363ffffffff610d2e16565b3360009081526020819052604080822092909255600160a060020a03851681522054610dc5908363ffffffff610d2116565b600160a060020a03841660008181526020818152604091829020939093558051858152905191923392600080516020610e398339815191529281900390910190a350600192915050565b6000821515610e20575060006104a8565b50818102818382811515610e3057fe5b04146104a857fe00ddf252ad1be2c89b69c2b068fc378daa952ba7f163c4a11628f55a4df523b3efa165627a7a723058208af01409c158d442cba0c174a8dcc6eb47708bc27d8c3f06b46601e47af1bfa50029",
  "source": "pragma solidity ^0.4.23;\n\n/**\n * @title SafeMath\n * @dev Math operations with safety checks that throw on error\n */\nlibrary SafeMath {\n\n  /**\n  * @dev Multiplies two numbers, throws on overflow.\n  */\n  function mul(uint256 a, uint256 b) internal pure returns (uint256 c) {\n    // Gas optimization: this is cheaper than asserting 'a' not being zero, but the\n    // benefit is lost if 'b' is also tested.\n    // See: https://github.com/OpenZeppelin/openzeppelin-solidity/pull/522\n    if (a == 0) {\n      return 0;\n    }\n\n    c = a * b;\n    assert(c / a == b);\n    return c;\n  }\n\n  /**\n  * @dev Integer division of two numbers, truncating the quotient.\n  */\n  function div(uint256 a, uint256 b) internal pure returns (uint256) {\n    // assert(b > 0); // Solidity automatically throws when dividing by 0\n    // uint256 c = a / b;\n    // assert(a == b * c + a % b); // There is no case in which this doesn't hold\n    return a / b;\n  }\n\n  /**\n  * @dev Subtracts two numbers, throws on overflow (i.e. if subtrahend is greater than minuend).\n  */\n  function sub(uint256 a, uint256 b) internal pure returns (uint256) {\n    assert(b <= a);\n    return a - b;\n  }\n\n  /**\n  * @dev Adds two numbers, throws on overflow.\n  */\n  function add(uint256 a, uint256 b) internal pure returns (uint256 c) {\n    c = a + b;\n    assert(c >= a);\n    return c;\n  }\n}\n\n/**\n * @title ERC20Basic\n * @dev Simpler version of ERC20 interface\n * @dev see https://github.com/ethereum/EIPs/issues/179\n */\ncontract ERC20Basic {\n  function totalSupply() public view returns (uint256);\n  function balanceOf(address who) public view returns (uint256);\n  function transfer(address to, uint256 value) public returns (bool);\n  event Transfer(address indexed from, address indexed to, uint256 value);\n}\n\n/**\n * @title Basic token\n * @dev Basic version of StandardToken, with no allowances.\n */\ncontract BasicToken is ERC20Basic {\n  using SafeMath for uint256;\n\n  mapping(address => uint256) balances;\n\n  uint256 totalSupply_;\n\n  /**\n  * @dev total number of tokens in existence\n  */\n  function totalSupply() public view returns (uint256) {\n    return totalSupply_;\n  }\n\n  /**\n  * @dev transfer token for a specified address\n  * @param _to The address to transfer to.\n  * @param _value The amount to be transferred.\n  */\n  function transfer(address _to, uint256 _value) public returns (bool) {\n    require(_to != address(0));\n    require(_value <= balances[msg.sender]);\n\n    balances[msg.sender] = balances[msg.sender].sub(_value);\n    balances[_to] = balances[_to].add(_value);\n    emit Transfer(msg.sender, _to, _value);\n    return true;\n  }\n\n  /**\n  * @dev Gets the balance of the specified address.\n  * @param _owner The address to query the the balance of.\n  * @return An uint256 representing the amount owned by the passed address.\n  */\n  function balanceOf(address _owner) public view returns (uint256) {\n    return balances[_owner];\n  }\n\n}\n\n/**\n * @title ERC20 interface\n * @dev see https://github.com/ethereum/EIPs/issues/20\n */\ncontract ERC20 is ERC20Basic {\n  function allowance(address owner, address spender)\n    public view returns (uint256);\n\n  function transferFrom(address from, address to, uint256 value)\n    public returns (bool);\n\n  function approve(address spender, uint256 value) public returns (bool);\n  event Approval(\n    address indexed owner,\n    address indexed spender,\n    uint256 value\n  );\n}\n\n/**\n * @title Standard ERC20 token\n *\n * @dev Implementation of the basic standard token.\n * @dev https://github.com/ethereum/EIPs/issues/20\n * @dev Based on code by FirstBlood: https://github.com/Firstbloodio/token/blob/master/smart_contract/FirstBloodToken.sol\n */\ncontract StandardToken is ERC20, BasicToken {\n\n  mapping (address => mapping (address => uint256)) internal allowed;\n\n\n  /**\n   * @dev Transfer tokens from one address to another\n   * @param _from address The address which you want to send tokens from\n   * @param _to address The address which you want to transfer to\n   * @param _value uint256 the amount of tokens to be transferred\n   */\n  function transferFrom(\n    address _from,\n    address _to,\n    uint256 _value\n  )\n    public\n    returns (bool)\n  {\n    require(_to != address(0));\n    require(_value <= balances[_from]);\n    require(_value <= allowed[_from][msg.sender]);\n\n    balances[_from] = balances[_from].sub(_value);\n    balances[_to] = balances[_to].add(_value);\n    allowed[_from][msg.sender] = allowed[_from][msg.sender].sub(_value);\n    emit Transfer(_from, _to, _value);\n    return true;\n  }\n\n  /**\n   * @dev Approve the passed address to spend the specified amount of tokens on behalf of msg.sender.\n   *\n   * Beware that changing an allowance with this method brings the risk that someone may use both the old\n   * and the new allowance by unfortunate transaction ordering. One possible solution to mitigate this\n   * race condition is to first reduce the spender's allowance to 0 and set the desired value afterwards:\n   * https://github.com/ethereum/EIPs/issues/20#issuecomment-263524729\n   * @param _spender The address which will spend the funds.\n   * @param _value The amount of tokens to be spent.\n   */\n  function approve(address _spender, uint256 _value) public returns (bool) {\n    allowed[msg.sender][_spender] = _value;\n    emit Approval(msg.sender, _spender, _value);\n    return true;\n  }\n\n  /**\n   * @dev Function to check the amount of tokens that an owner allowed to a spender.\n   * @param _owner address The address which owns the funds.\n   * @param _spender address The address which will spend the funds.\n   * @return A uint256 specifying the amount of tokens still available for the spender.\n   */\n  function allowance(\n    address _owner,\n    address _spender\n   )\n    public\n    view\n    returns (uint256)\n  {\n    return allowed[_owner][_spender];\n  }\n\n  /**\n   * @dev Increase the amount of tokens that an owner allowed to a spender.\n   *\n   * approve should be called when allowed[_spender] == 0. To increment\n   * allowed value is better to use this function to avoid 2 calls (and wait until\n   * the first transaction is mined)\n   * From MonolithDAO Token.sol\n   * @param _spender The address which will spend the funds.\n   * @param _addedValue The amount of tokens to increase the allowance by.\n   */\n  function increaseApproval(\n    address _spender,\n    uint _addedValue\n  )\n    public\n    returns (bool)\n  {\n    allowed[msg.sender][_spender] = (\n      allowed[msg.sender][_spender].add(_addedValue));\n    emit Approval(msg.sender, _spender, allowed[msg.sender][_spender]);\n    return true;\n  }\n\n  /**\n   * @dev Decrease the amount of tokens that an owner allowed to a spender.\n   *\n   * approve should be called when allowed[_spender] == 0. To decrement\n   * allowed value is better to use this function to avoid 2 calls (and wait until\n   * the first transaction is mined)\n   * From MonolithDAO Token.sol\n   * @param _spender The address which will spend the funds.\n   * @param _subtractedValue The amount of tokens to decrease the allowance by.\n   */\n  function decreaseApproval(\n    address _spender,\n    uint _subtractedValue\n  )\n    public\n    returns (bool)\n  {\n    uint oldValue = allowed[msg.sender][_spender];\n    if (_subtractedValue > oldValue) {\n      allowed[msg.sender][_spender] = 0;\n    } else {\n      allowed[msg.sender][_spender] = oldValue.sub(_subtractedValue);\n    }\n    emit Approval(msg.sender, _spender, allowed[msg.sender][_spender]);\n    return true;\n  }\n\n}\n\ncontract MultiOwnable {\n    mapping (address => bool) owners;\n    address unremovableOwner;\n\n    event OwnershipTransferred(address indexed previousOwner, address indexed newOwner);\n    event OwnershipExtended(address indexed host, address indexed guest);\n    event OwnershipRemoved(address indexed removedOwner);\n\n    modifier onlyOwner() {\n        require(owners[msg.sender]);\n        _;\n    }\n\n    constructor() public {\n        owners[msg.sender] = true;\n        unremovableOwner = msg.sender;\n    }\n\n    function addOwner(address guest) onlyOwner public {\n        require(guest != address(0));\n        owners[guest] = true;\n        emit OwnershipExtended(msg.sender, guest);\n    }\n\n    function removeOwner(address removedOwner) onlyOwner public {\n        require(removedOwner != address(0));\n        require(unremovableOwner != removedOwner);\n        delete owners[removedOwner];\n        emit OwnershipRemoved(removedOwner);\n    }\n\n    function transferOwnership(address newOwner) onlyOwner public {\n        require(newOwner != address(0));\n        require(unremovableOwner != msg.sender);\n        owners[newOwner] = true;\n        delete owners[msg.sender];\n        emit OwnershipTransferred(msg.sender, newOwner);\n    }\n\n    function isOwner(address addr) public view returns(bool){\n        return owners[addr];\n    }\n}\n\ncontract FCT is StandardToken, MultiOwnable {\n\n    using SafeMath for uint256;\n\n    uint256 public constant TOTAL_CAP = 2200000000;\n\n    string public constant name = \"FirmaChain Token\";\n    string public constant symbol = \"FCT\";\n    uint256 public constant decimals = 18;\n\n    bool isTransferable = false;\n\n    constructor() public {\n        totalSupply_ = TOTAL_CAP.mul(10 ** decimals);\n        balances[msg.sender] = totalSupply_;\n        emit Transfer(address(0), msg.sender, balances[msg.sender]);\n    }\n\n    function unlock() external onlyOwner {\n        isTransferable = true;\n    }\n\n    function lock() external onlyOwner {\n        isTransferable = false;\n    }\n\n    function transferFrom(address _from, address _to, uint256 _value) public returns (bool) {\n        require(isTransferable || owners[msg.sender]);\n        return super.transferFrom(_from, _to, _value);\n    }\n\n    function transfer(address _to, uint256 _value) public returns (bool) {\n        require(isTransferable || owners[msg.sender]);\n        return super.transfer(_to, _value);\n    }\n\n    // NOTE: _amount of 1 FCT is 10 ** decimals\n    function mint(address _to, uint256 _amount) onlyOwner public returns (bool) {\n        require(_to != address(0));\n\n        totalSupply_ = totalSupply_.add(_amount);\n        balances[_to] = balances[_to].add(_amount);\n\n        emit Mint(_to, _amount);\n        emit Transfer(address(0), _to, _amount);\n\n        return true;\n    }\n\n    // NOTE: _amount of 1 FCT is 10 ** decimals\n    function burn(uint256 _amount) onlyOwner public {\n        require(_amount <= balances[msg.sender]);\n\n        totalSupply_ = totalSupply_.sub(_amount);\n        balances[msg.sender] = balances[msg.sender].sub(_amount);\n\n        emit Burn(msg.sender, _amount);\n        emit Transfer(msg.sender, address(0), _amount);\n    }\n\n    event Mint(address indexed _to, uint256 _amount);\n    event Burn(address indexed _from, uint256 _amount);\n}\n",
  "sourcePath": "/home/ubuntu/contract_private/contracts/token/FCT.sol",
  "compiler": {
    "name": "solc",
    "version": "0.4.24+commit.e67f0147.Emscripten.clang"
  },
  "schemaVersion": "2.0.1",
  "updatedAt": "2018-08-23T08:15:42.985Z"
}