{
  "contractName": "Poc",
  "address": "0x33c9bf5a8dd1f0d3bfd6c388457e8d1075d89679",
  "abi": [
    {
      "constant": true,
      "inputs": [
        {
          "name": "",
          "type": "uint256"
        }
      ],
      "name": "signProgress",
      "outputs": [
        {
          "name": "",
          "type": "uint256"
        }
      ],
      "payable": false,
      "stateMutability": "view",
      "type": "function"
    },
    {
      "constant": true,
      "inputs": [
        {
          "name": "",
          "type": "uint256"
        }
      ],
      "name": "parentContract",
      "outputs": [
        {
          "name": "",
          "type": "uint256"
        }
      ],
      "payable": false,
      "stateMutability": "view",
      "type": "function"
    },
    {
      "constant": true,
      "inputs": [
        {
          "name": "",
          "type": "uint256"
        }
      ],
      "name": "hasChild",
      "outputs": [
        {
          "name": "",
          "type": "bool"
        }
      ],
      "payable": false,
      "stateMutability": "view",
      "type": "function"
    },
    {
      "constant": true,
      "inputs": [
        {
          "name": "",
          "type": "uint256"
        },
        {
          "name": "",
          "type": "uint256"
        }
      ],
      "name": "parties",
      "outputs": [
        {
          "name": "",
          "type": "address"
        }
      ],
      "payable": false,
      "stateMutability": "view",
      "type": "function"
    },
    {
      "constant": true,
      "inputs": [
        {
          "name": "",
          "type": "uint256"
        }
      ],
      "name": "approvals",
      "outputs": [
        {
          "name": "",
          "type": "bool"
        }
      ],
      "payable": false,
      "stateMutability": "view",
      "type": "function"
    },
    {
      "constant": true,
      "inputs": [
        {
          "name": "",
          "type": "uint256"
        }
      ],
      "name": "expireBlockNumbers",
      "outputs": [
        {
          "name": "",
          "type": "uint256"
        }
      ],
      "payable": false,
      "stateMutability": "view",
      "type": "function"
    },
    {
      "constant": true,
      "inputs": [
        {
          "name": "",
          "type": "uint256"
        },
        {
          "name": "",
          "type": "uint256"
        }
      ],
      "name": "extraData",
      "outputs": [
        {
          "name": "",
          "type": "string"
        }
      ],
      "payable": false,
      "stateMutability": "view",
      "type": "function"
    },
    {
      "constant": true,
      "inputs": [
        {
          "name": "",
          "type": "uint256"
        },
        {
          "name": "",
          "type": "uint256"
        }
      ],
      "name": "hashes",
      "outputs": [
        {
          "name": "",
          "type": "uint256"
        }
      ],
      "payable": false,
      "stateMutability": "view",
      "type": "function"
    },
    {
      "inputs": [],
      "payable": false,
      "stateMutability": "nonpayable",
      "type": "constructor"
    },
    {
      "anonymous": false,
      "inputs": [
        {
          "indexed": true,
          "name": "_contractId",
          "type": "uint256"
        },
        {
          "indexed": true,
          "name": "_creator",
          "type": "address"
        },
        {
          "indexed": false,
          "name": "_parties",
          "type": "address[]"
        },
        {
          "indexed": false,
          "name": "_lifetime",
          "type": "uint256"
        },
        {
          "indexed": false,
          "name": "_overwrite",
          "type": "bool"
        }
      ],
      "name": "NewContract",
      "type": "event"
    },
    {
      "anonymous": false,
      "inputs": [
        {
          "indexed": true,
          "name": "_contractId",
          "type": "uint256"
        },
        {
          "indexed": true,
          "name": "_creator",
          "type": "address"
        },
        {
          "indexed": true,
          "name": "_parentContractId",
          "type": "uint256"
        },
        {
          "indexed": false,
          "name": "_lifetime",
          "type": "uint256"
        },
        {
          "indexed": false,
          "name": "_overwrite",
          "type": "bool"
        }
      ],
      "name": "NewSubContract",
      "type": "event"
    },
    {
      "anonymous": false,
      "inputs": [
        {
          "indexed": true,
          "name": "_contractId",
          "type": "uint256"
        },
        {
          "indexed": true,
          "name": "_signer",
          "type": "address"
        },
        {
          "indexed": false,
          "name": "_signedHash",
          "type": "uint256"
        }
      ],
      "name": "SignContract",
      "type": "event"
    },
    {
      "anonymous": false,
      "inputs": [
        {
          "indexed": true,
          "name": "_contractId",
          "type": "uint256"
        },
        {
          "indexed": false,
          "name": "_defector",
          "type": "address"
        }
      ],
      "name": "NullifyContract",
      "type": "event"
    },
    {
      "anonymous": false,
      "inputs": [
        {
          "indexed": true,
          "name": "_contractId",
          "type": "uint256"
        }
      ],
      "name": "ApproveContract",
      "type": "event"
    },
    {
      "constant": true,
      "inputs": [
        {
          "name": "_contractId",
          "type": "uint256"
        }
      ],
      "name": "getContractHistory",
      "outputs": [
        {
          "name": "",
          "type": "uint256[]"
        }
      ],
      "payable": false,
      "stateMutability": "view",
      "type": "function"
    },
    {
      "constant": true,
      "inputs": [
        {
          "name": "_contractId",
          "type": "uint256"
        }
      ],
      "name": "getRootContract",
      "outputs": [
        {
          "name": "",
          "type": "uint256"
        }
      ],
      "payable": false,
      "stateMutability": "view",
      "type": "function"
    },
    {
      "constant": true,
      "inputs": [
        {
          "name": "_contractId",
          "type": "uint256"
        }
      ],
      "name": "isExpiredContract",
      "outputs": [
        {
          "name": "",
          "type": "bool"
        }
      ],
      "payable": false,
      "stateMutability": "view",
      "type": "function"
    },
    {
      "constant": true,
      "inputs": [
        {
          "name": "_contractId",
          "type": "uint256"
        }
      ],
      "name": "getParties",
      "outputs": [
        {
          "name": "",
          "type": "address[]"
        }
      ],
      "payable": false,
      "stateMutability": "view",
      "type": "function"
    },
    {
      "constant": true,
      "inputs": [
        {
          "name": "_contractId",
          "type": "uint256"
        }
      ],
      "name": "getHashes",
      "outputs": [
        {
          "name": "",
          "type": "uint256[]"
        }
      ],
      "payable": false,
      "stateMutability": "view",
      "type": "function"
    },
    {
      "constant": true,
      "inputs": [
        {
          "name": "_contractId",
          "type": "uint256"
        }
      ],
      "name": "getStatus",
      "outputs": [
        {
          "name": "",
          "type": "int256"
        }
      ],
      "payable": false,
      "stateMutability": "view",
      "type": "function"
    },
    {
      "constant": false,
      "inputs": [
        {
          "name": "_contractId",
          "type": "uint256"
        },
        {
          "name": "_parties",
          "type": "address[]"
        },
        {
          "name": "_lifetime",
          "type": "uint256"
        }
      ],
      "name": "newContract",
      "outputs": [],
      "payable": false,
      "stateMutability": "nonpayable",
      "type": "function"
    },
    {
      "constant": false,
      "inputs": [
        {
          "name": "_contractId",
          "type": "uint256"
        },
        {
          "name": "_parentContractId",
          "type": "uint256"
        },
        {
          "name": "_lifetime",
          "type": "uint256"
        }
      ],
      "name": "newSubContract",
      "outputs": [],
      "payable": false,
      "stateMutability": "nonpayable",
      "type": "function"
    },
    {
      "constant": false,
      "inputs": [
        {
          "name": "_contractId",
          "type": "uint256"
        },
        {
          "name": "_signedHash",
          "type": "uint256"
        },
        {
          "name": "_extraData",
          "type": "string"
        }
      ],
      "name": "signContract",
      "outputs": [],
      "payable": false,
      "stateMutability": "nonpayable",
      "type": "function"
    },
    {
      "constant": false,
      "inputs": [
        {
          "name": "_contractId",
          "type": "uint256"
        },
        {
          "name": "_signedHash",
          "type": "uint256"
        },
        {
          "name": "_parties",
          "type": "address[]"
        }
      ],
      "name": "newOrSignContract",
      "outputs": [],
      "payable": false,
      "stateMutability": "nonpayable",
      "type": "function"
    }
  ],
  "bytecode": "0x608060405234801561001057600080fd5b50611290806100206000396000f3006080604052600436106100fb5763ffffffff7c010000000000000000000000000000000000000000000000000000000060003504166302a8ca1081146101005780630305dd591461016857806306b78c04146101ca57806306ffc546146101f65780631f35abd7146102525780632661b8c61461027c578063335146f714610294578063395d32b6146102b2578063447fe289146102ca5780635071d85f146102e257806352554a78146103405780635c622a0e1461037757806363035f661461038f57806388863aa2146103a75780639d2af90e146103bf578063ada7f08b1461044f578063c850a5f614610467578063d13372ca1461047f575b600080fd5b34801561010c57600080fd5b5061011860043561049a565b60408051602080825283518183015283519192839290830191858101910280838360005b8381101561015457818101518382015260200161013c565b505050509050019250505060405180910390f35b34801561017457600080fd5b50604080516020600460443581810135601f81018490048402850184019095528484526101c89482359460248035953695946064949201919081908401838280828437509497506104fd9650505050505050565b005b3480156101d657600080fd5b506101e26004356107c0565b604080519115158252519081900360200190f35b34801561020257600080fd5b506040805160206004602480358281013584810280870186019097528086526101c89684359636966044959194909101929182918501908490808284375094975050933594506107d49350505050565b34801561025e57600080fd5b5061026a6004356109e4565b60408051918252519081900360200190f35b34801561028857600080fd5b5061026a6004356109f6565b3480156102a057600080fd5b506101c8600435602435604435610a08565b3480156102be57600080fd5b506101e2600435610bb4565b3480156102d657600080fd5b50610118600435610bc9565b3480156102ee57600080fd5b5060408051602060046044358181013583810280860185019096528085526101c8958335956024803596369695606495939492019291829185019084908082843750949750610c459650505050505050565b34801561034c57600080fd5b5061035b600435602435610c80565b60408051600160a060020a039092168252519081900360200190f35b34801561038357600080fd5b5061026a600435610cb7565b34801561039b57600080fd5b506101e2600435610d14565b3480156103b357600080fd5b5061026a600435610d29565b3480156103cb57600080fd5b506103da600435602435610d3b565b6040805160208082528351818301528351919283929083019185019080838360005b838110156104145781810151838201526020016103fc565b50505050905090810190601f1680156104415780820380516001836020036101000a031916815260200191505b509250505060405180910390f35b34801561045b57600080fd5b50610118600435610df1565b34801561047357600080fd5b5061026a600435610eb7565b34801561048b57600080fd5b5061026a600435602435610ee7565b6000818152600360209081526040918290208054835181840281018401909452808452606093928301828280156104f057602002820191906000526020600020905b8154815260200190600101908083116104dc575b505050505090505b919050565b6060600080600080600061051089610bc9565b955061051b89610cb7565b1561052557600080fd5b855160008a8152600560205260409020541061054057600080fd5b61054a8933610f17565b909550935084151561055b57600080fd5b600089815260036020526040902080548590811061057557fe5b6000918252602090912001541561058b57600080fd5b60008981526003602052604090208054899190869081106105a857fe5b906000526020600020018190555086600460008b8152602001908152602001600020858154811015156105d757fe5b9060005260206000200190805190602001906105f492919061102d565b5060008981526005602052604090205461061590600163ffffffff610f8d16565b60008a8152600560209081526040918290209290925580518a8152905133928c927f50a3310bf5a3b41a0897ed6a820037c427d5bd8b27d084a48de32bdb296a707b929081900390910190a3855160008a81526005602052604090205414156107b55760008981526003602052604081208054909190811061069357fe5b9060005260206000200154925060019150600190505b6000898152600360205260409020548110156107665760008981526003602052604090208054829081106106d957fe5b90600052602060002001548314151561075e57600089815260066020526040812060019055865190925089907f55c97a1c48fbd49aa1102cf1a0bcae0684376e8d106a5f0de77c5d66bc6260579088908490811061073357fe5b602090810290910181015160408051600160a060020a039092168252519081900390910190a2610766565b6001016106a9565b6000898152600760205260409020805460ff191683158015919091179091556107b55760405189907f1afc78ecd28dba8c4f49ab3982ba006ffc649deadaf4810183e9c4318c92e4b890600090a25b505050505050505050565b600090815260066020526040902054431190565b60008082116107e257600080fd5b600083511180156107f557506103e88351105b151561080057600080fd5b61080983610fa0565b151561081457600080fd5b61081d84610cb7565b60001914156100fb5750600083815260066020908152604080832054838352818420805460ff1916905560018352818420849055600283529220845192151592610869928601906110ab565b508251604051908082528060200260200182016040528015610895578160200160208202803883390190505b50600085815260036020908152604090912082516108b99391929190910190611119565b5082516040519080825280602002602001820160405280156108ef57816020015b60608152602001906001900390816108da5790505b50600085815260046020908152604090912082516109139391929190910190611153565b50600084815260056020526040812055610933438363ffffffff610f8d16565b600660008681526020019081526020016000208190555033600160a060020a0316847fc92c498d852ee47b7902bc060a312a3f0d62b33edb2310883191e23644747a16858585604051808060200184815260200183151515158152602001828103825285818151815260200191508051906020019060200280838360005b838110156109c95781810151838201526020016109b1565b5050505090500194505050505060405180910390a350505050565b60056020526000908152604090205481565b60016020526000908152604090205481565b600080806060818511610a1a57600080fd5b610a2387610cb7565b60001914156100fb57610a368633610f17565b9094509250831515610a4757600080fd5b600087815260066020908152604080832054898452838352818420805460ff191660019081179091558b855290925290912087905515159150610a8986610bc9565b90508051604051908082528060200260200182016040528015610ab6578160200160208202803883390190505b5060008881526003602090815260409091208251610ada9391929190910190611119565b508051604051908082528060200260200182016040528015610b1057816020015b6060815260200190600190039081610afb5790505b5060008881526004602090815260409091208251610b349391929190910190611153565b50600087815260056020526040812055610b54438663ffffffff610f8d16565b600088815260066020908152604091829020929092558051878152841515928101929092528051889233928b927fa4aeb7fadcd9bedce6632c2dfd41c4c648d89312066677be08ac00f28bf7befc9281900390910190a450505050505050565b60006020819052908152604090205460ff1681565b60606000610bd683610eb7565b6000818152600260209081526040918290208054835181840281018401909452808452939450919290830182828015610c3857602002820191906000526020600020905b8154600160a060020a03168152600190910190602001808311610c1a575b5050505050915050919050565b610c4e83610cb7565b15610c6057610c6083826127106107d4565b610c7b838360206040519081016040528060008152506104fd565b505050565b600260205281600052604060002081815481101515610c9b57fe5b600091825260209091200154600160a060020a03169150829050565b60008181526020819052604081205460ff1615610cd6575060026104f8565b60008281526007602052604090205460ff1615610cf5575060016104f8565b610cfe826107c0565b15610d0c57506000196104f8565b5060006104f8565b60076020526000908152604090205460ff1681565b60066020526000908152604090205481565b600460205281600052604060002081815481101515610d5657fe5b600091825260209182902001805460408051601f60026000196101006001871615020190941693909304928301859004850281018501909152818152945090925090830182828015610de95780601f10610dbe57610100808354040283529160200191610de9565b820191906000526020600020905b815481529060010190602001808311610dcc57829003601f168201915b505050505081565b60608160018260005b60008481526001602052604090205415610e3757610e1f83600163ffffffff610f8d16565b60009485526001602052604090942054939250610dfa565b82604051908082528060200260200182016040528015610e61578160200160208202803883390190505b509150859350600090505b82811015610eae578382600183860303815181101515610e8857fe5b602090810290910181019190915260009485526001908190526040909420549301610e6c565b50949350505050565b60006060610ec483610df1565b9050806000815181101515610ed557fe5b90602001906020020151915050919050565b600360205281600052604060002081815481101515610f0257fe5b90600052602060002001600091509150505481565b60008060606000610f2786610bc9565b9150600090505b8151811015610f7c5784600160a060020a03168282815181101515610f4f57fe5b90602001906020020151600160a060020a03161415610f745760018193509350610f84565b600101610f2e565b600093508392505b50509250929050565b81810182811015610f9a57fe5b92915050565b600080805b83518210156110215750600181015b8351811015611016578381815181101515610fcb57fe5b90602001906020020151600160a060020a03168483815181101515610fec57fe5b90602001906020020151600160a060020a0316141561100e5760009250611026565b600101610fb4565b600190910190610fa5565b600192505b5050919050565b828054600181600116156101000203166002900490600052602060002090601f016020900481019282601f1061106e57805160ff191683800117855561109b565b8280016001018555821561109b579182015b8281111561109b578251825591602001919060010190611080565b506110a79291506111ac565b5090565b82805482825590600052602060002090810192821561110d579160200282015b8281111561110d578251825473ffffffffffffffffffffffffffffffffffffffff1916600160a060020a039091161782556020909201916001909101906110cb565b506110a79291506111c9565b82805482825590600052602060002090810192821561109b579160200282018281111561109b578251825591602001919060010190611080565b8280548282559060005260206000209081019282156111a0579160200282015b828111156111a0578251805161119091849160209091019061102d565b5091602001919060010190611173565b506110a79291506111fa565b6111c691905b808211156110a757600081556001016111b2565b90565b6111c691905b808211156110a757805473ffffffffffffffffffffffffffffffffffffffff191681556001016111cf565b6111c691905b808211156110a7576000611214828261121d565b50600101611200565b50805460018160011615610100020316600290046000825580601f106112435750611261565b601f01602090049060005260206000209081019061126191906111ac565b505600a165627a7a72305820e4a7160ac3564987dbe1af9048896602d508b00c6b13c9217c11aa26b575da3d0029",
  "source": "pragma solidity ^0.4.23;\n\nimport \"zeppelin-solidity/contracts/math/SafeMath.sol\";\n\ncontract Poc {\n    using SafeMath for uint256;\n    mapping (uint256 => bool) public hasChild;\n    mapping (uint256 => uint256) public parentContract;\n    mapping (uint256 => address[]) public parties;\n    mapping (uint256 => uint256[]) public hashes;\n    mapping (uint256 => string[]) public extraData;\n    mapping (uint256 => uint256) public signProgress;\n    mapping (uint256 => uint256) public expireBlockNumbers;\n    mapping (uint256 => bool) public approvals;\n\n    constructor() public {\n    }\n\n    function getContractHistory(uint256 _contractId) public view returns (uint256[]) {\n        uint256 _nowContractId = _contractId;\n        uint256 _historySize = 1;\n        while(parentContract[_nowContractId] != 0) {\n            _historySize = _historySize.add(1);\n            _nowContractId = parentContract[_nowContractId];\n        }\n        uint256[] memory history = new uint256[](_historySize);\n        _nowContractId = _contractId;\n        for (uint256 i = 0; i < _historySize; i++) {\n            history[_historySize - i - 1] = _nowContractId;\n            _nowContractId = parentContract[_nowContractId];\n        }\n        return history;\n    }\n\n    function getRootContract(uint256 _contractId) public view returns (uint256) {\n        uint256[] memory history = getContractHistory(_contractId);\n        return history[0];\n    }\n\n    function isExpiredContract(uint256 _contractId) public view returns (bool) {\n        return block.number > expireBlockNumbers[_contractId];\n    }\n\n    function getParties(uint256 _contractId) public view returns (address[]) {\n        uint256 _rootContractId = getRootContract(_contractId);\n        return parties[_rootContractId];\n    }\n\n    function getHashes(uint256 _contractId) public view returns (uint256[]) {\n        return hashes[_contractId];\n    }\n\n    // getStatus\n    // 2 : Closed (which has child contract)\n    // 1 : Approved\n    // 0 : Wait to sign\n    // -1 : Expired or nullified\n    function getStatus(uint256 _contractId) public view returns (int) {\n        if (hasChild[_contractId]) {\n            return 2;\n        } else if (approvals[_contractId]) { // approvals[_contractId]\n            return 1;\n        } else if (isExpiredContract(_contractId)) { // isExpiredContract(_contractId) && !approvals[_contractId]\n            return -1;\n        } else { // !isExpiredContract(_contractId) && !approvals[_contractId]\n            return 0;\n        }\n    }\n\n    function newContract(uint256 _contractId, address[] _parties, uint256 _lifetime) public { \n        require(_lifetime > 0);\n        require(_parties.length > 0 && _parties.length < 1000);\n        require(_checkDistinctParties(_parties));\n        if (getStatus(_contractId) == -1) {\n            bool overwrited = expireBlockNumbers[_contractId] != 0;\n            hasChild[_contractId] = false; // NOTE: actually meaningless code; it is always false if reaching here\n            parentContract[_contractId] = 0;\n            parties[_contractId] = _parties;\n            hashes[_contractId] = new uint256[](_parties.length);\n            extraData[_contractId] = new string[](_parties.length);\n            signProgress[_contractId] = 0;\n            expireBlockNumbers[_contractId] = block.number.add(_lifetime);\n            emit NewContract(_contractId, msg.sender, _parties, _lifetime, overwrited);\n        } else {\n            require(false);\n        }\n    }\n    event NewContract(uint256 indexed _contractId, address indexed _creator, address[] _parties, uint256 _lifetime, bool _overwrite);\n\n    function newSubContract(uint256 _contractId, uint256 _parentContractId, uint256 _lifetime) public { \n        require(_lifetime > 0);\n        if (getStatus(_contractId) == -1) {\n            bool exist;\n            uint256 index;\n            (exist, index) = _getIndexOfParty(_parentContractId, msg.sender);\n            require(exist);\n            bool overwrited = expireBlockNumbers[_contractId] != 0;\n            hasChild[_parentContractId] = true;\n            parentContract[_contractId] = _parentContractId;\n            address[] memory rootParties = getParties(_parentContractId);\n            //parties[_contractId] = _parties;\n            hashes[_contractId] = new uint256[](rootParties.length);\n            extraData[_contractId] = new string[](rootParties.length);\n            signProgress[_contractId] = 0;\n            expireBlockNumbers[_contractId] = block.number.add(_lifetime);\n            emit NewSubContract(_contractId, msg.sender, _parentContractId, _lifetime, overwrited);\n        } else {\n            require(false);\n        }\n    }\n    event NewSubContract(uint256 indexed _contractId, address indexed _creator, uint256 indexed _parentContractId, uint256 _lifetime, bool _overwrite);\n\n    function signContract(uint256 _contractId, uint256 _signedHash, string _extraData) public {\n        address[] memory rootParties = getParties(_contractId);\n        require(getStatus(_contractId) == 0);\n        require(signProgress[_contractId] < rootParties.length);\n        bool exist;\n        uint256 index;\n        (exist, index) = _getIndexOfParty(_contractId, msg.sender);\n        require(exist);\n        require(hashes[_contractId][index] == 0);\n        hashes[_contractId][index] = _signedHash;\n        extraData[_contractId][index] = _extraData;\n        signProgress[_contractId] = signProgress[_contractId].add(1);\n        emit SignContract(_contractId, msg.sender, _signedHash);\n        if (signProgress[_contractId] == rootParties.length) {\n            uint256 commonHash = hashes[_contractId][0];\n            bool approval = true;\n            for(uint256 i = 1; i < hashes[_contractId].length; i++) {\n                if (commonHash != hashes[_contractId][i]) {\n                    approval = false;\n                    expireBlockNumbers[_contractId] = 1;\n                    emit NullifyContract(_contractId, rootParties[i]);\n                    break;\n                }\n            }\n            approvals[_contractId] = approval;\n            if (approval) {\n                emit ApproveContract(_contractId);\n            }\n        }\n    }\n    event SignContract(uint256 indexed _contractId, address indexed _signer, uint256 _signedHash);\n    event NullifyContract(uint256 indexed _contractId, address _defector);\n    event ApproveContract(uint256 indexed _contractId);\n\n    function newOrSignContract(uint256 _contractId, uint256 _signedHash, address[] _parties) public {\n        if (getStatus(_contractId) != 0) {\n            newContract(_contractId, _parties, 10000);\n        }\n        signContract(_contractId, _signedHash, \"\");\n    }\n\n    function _getIndexOfParty(uint256 _contractId, address _addr) private view returns (bool, uint256) {\n        address[] memory rootParties = getParties(_contractId);\n        for(uint256 i = 0; i < rootParties.length; i++) {\n            if (rootParties[i] == _addr) {\n                return (true, i);\n            }\n        }\n        return (false, 0);\n    }\n\n    function _checkDistinctParties(address[] _parties) private pure returns (bool) {\n        for (uint256 i = 0; i < _parties.length; i++) {\n            for (uint256 j = i + 1; j < _parties.length; j++) {\n                if (_parties[i] == _parties[j]) {\n                    return false;\n                }\n            }\n        }\n        return true;\n    }\n}\n",
  "sourcePath": "/home/ubuntu/contract_private/contracts/poc/Poc.sol",
  "compiler": {
    "name": "solc",
    "version": "0.4.24+commit.e67f0147.Emscripten.clang"
  },
  "schemaVersion": "2.0.1",
  "updatedAt": "2018-10-31T06:29:45.798Z"
}